{
  "_format": "hh-sol-artifact-1",
  "contractName": "BlockSeatTicket",
  "sourceName": "contracts/BlockSeatTicket.sol",
  "abi": [
    {
      "inputs": [],
      "stateMutability": "nonpayable",
      "type": "constructor"
    },
    {
      "anonymous": false,
      "inputs": [
        {
          "indexed": true,
          "internalType": "address",
          "name": "owner",
          "type": "address"
        },
        {
          "indexed": true,
          "internalType": "address",
          "name": "approved",
          "type": "address"
        },
        {
          "indexed": true,
          "internalType": "uint256",
          "name": "tokenId",
          "type": "uint256"
        }
      ],
      "name": "Approval",
      "type": "event"
    },
    {
      "anonymous": false,
      "inputs": [
        {
          "indexed": true,
          "internalType": "address",
          "name": "owner",
          "type": "address"
        },
        {
          "indexed": true,
          "internalType": "address",
          "name": "operator",
          "type": "address"
        },
        {
          "indexed": false,
          "internalType": "bool",
          "name": "approved",
          "type": "bool"
        }
      ],
      "name": "ApprovalForAll",
      "type": "event"
    },
    {
      "anonymous": false,
      "inputs": [
        {
          "indexed": true,
          "internalType": "address",
          "name": "previousOwner",
          "type": "address"
        },
        {
          "indexed": true,
          "internalType": "address",
          "name": "newOwner",
          "type": "address"
        }
      ],
      "name": "OwnershipTransferred",
      "type": "event"
    },
    {
      "anonymous": false,
      "inputs": [
        {
          "indexed": true,
          "internalType": "uint256",
          "name": "tokenId",
          "type": "uint256"
        },
        {
          "indexed": true,
          "internalType": "address",
          "name": "to",
          "type": "address"
        },
        {
          "indexed": false,
          "internalType": "string",
          "name": "eventId",
          "type": "string"
        },
        {
          "indexed": false,
          "internalType": "string",
          "name": "seat",
          "type": "string"
        }
      ],
      "name": "TicketMinted",
      "type": "event"
    },
    {
      "anonymous": false,
      "inputs": [
        {
          "indexed": true,
          "internalType": "uint256",
          "name": "tokenId",
          "type": "uint256"
        },
        {
          "indexed": true,
          "internalType": "address",
          "name": "from",
          "type": "address"
        },
        {
          "indexed": true,
          "internalType": "address",
          "name": "to",
          "type": "address"
        },
        {
          "indexed": false,
          "internalType": "uint256",
          "name": "price",
          "type": "uint256"
        }
      ],
      "name": "TicketResold",
      "type": "event"
    },
    {
      "anonymous": false,
      "inputs": [
        {
          "indexed": true,
          "internalType": "uint256",
          "name": "tokenId",
          "type": "uint256"
        }
      ],
      "name": "TicketUsed",
      "type": "event"
    },
    {
      "anonymous": false,
      "inputs": [
        {
          "indexed": true,
          "internalType": "address",
          "name": "from",
          "type": "address"
        },
        {
          "indexed": true,
          "internalType": "address",
          "name": "to",
          "type": "address"
        },
        {
          "indexed": true,
          "internalType": "uint256",
          "name": "tokenId",
          "type": "uint256"
        }
      ],
      "name": "Transfer",
      "type": "event"
    },
    {
      "inputs": [
        {
          "internalType": "address",
          "name": "to",
          "type": "address"
        },
        {
          "internalType": "uint256",
          "name": "tokenId",
          "type": "uint256"
        }
      ],
      "name": "approve",
      "outputs": [],
      "stateMutability": "nonpayable",
      "type": "function"
    },
    {
      "inputs": [
        {
          "internalType": "address",
          "name": "owner",
          "type": "address"
        }
      ],
      "name": "balanceOf",
      "outputs": [
        {
          "internalType": "uint256",
          "name": "",
          "type": "uint256"
        }
      ],
      "stateMutability": "view",
      "type": "function"
    },
    {
      "inputs": [
        {
          "internalType": "uint256",
          "name": "tokenId",
          "type": "uint256"
        }
      ],
      "name": "burnOnEntry",
      "outputs": [],
      "stateMutability": "nonpayable",
      "type": "function"
    },
    {
      "inputs": [
        {
          "internalType": "uint256",
          "name": "tokenId",
          "type": "uint256"
        }
      ],
      "name": "getApproved",
      "outputs": [
        {
          "internalType": "address",
          "name": "",
          "type": "address"
        }
      ],
      "stateMutability": "view",
      "type": "function"
    },
    {
      "inputs": [
        {
          "internalType": "uint256",
          "name": "tokenId",
          "type": "uint256"
        }
      ],
      "name": "getTicketData",
      "outputs": [
        {
          "components": [
            {
              "internalType": "uint256",
              "name": "tokenId",
              "type": "uint256"
            },
            {
              "internalType": "string",
              "name": "eventId",
              "type": "string"
            },
            {
              "internalType": "string",
              "name": "seat",
              "type": "string"
            },
            {
              "internalType": "uint256",
              "name": "faceValue",
              "type": "uint256"
            },
            {
              "internalType": "uint256",
              "name": "maxResalePrice",
              "type": "uint256"
            },
            {
              "internalType": "bool",
              "name": "isUsed",
              "type": "bool"
            },
            {
              "internalType": "uint256",
              "name": "transferCount",
              "type": "uint256"
            }
          ],
          "internalType": "struct BlockSeatTicket.TicketData",
          "name": "",
          "type": "tuple"
        }
      ],
      "stateMutability": "view",
      "type": "function"
    },
    {
      "inputs": [
        {
          "internalType": "address",
          "name": "owner",
          "type": "address"
        },
        {
          "internalType": "address",
          "name": "operator",
          "type": "address"
        }
      ],
      "name": "isApprovedForAll",
      "outputs": [
        {
          "internalType": "bool",
          "name": "",
          "type": "bool"
        }
      ],
      "stateMutability": "view",
      "type": "function"
    },
    {
      "inputs": [
        {
          "internalType": "address",
          "name": "to",
          "type": "address"
        },
        {
          "internalType": "uint256",
          "name": "tokenId",
          "type": "uint256"
        },
        {
          "internalType": "string",
          "name": "eventId",
          "type": "string"
        },
        {
          "internalType": "string",
          "name": "seat",
          "type": "string"
        },
        {
          "internalType": "uint256",
          "name": "faceValue",
          "type": "uint256"
        }
      ],
      "name": "mint",
      "outputs": [],
      "stateMutability": "nonpayable",
      "type": "function"
    },
    {
      "inputs": [],
      "name": "name",
      "outputs": [
        {
          "internalType": "string",
          "name": "",
          "type": "string"
        }
      ],
      "stateMutability": "view",
      "type": "function"
    },
    {
      "inputs": [],
      "name": "owner",
      "outputs": [
        {
          "internalType": "address",
          "name": "",
          "type": "address"
        }
      ],
      "stateMutability": "view",
      "type": "function"
    },
    {
      "inputs": [
        {
          "internalType": "uint256",
          "name": "tokenId",
          "type": "uint256"
        }
      ],
      "name": "ownerOf",
      "outputs": [
        {
          "internalType": "address",
          "name": "",
          "type": "address"
        }
      ],
      "stateMutability": "view",
      "type": "function"
    },
    {
      "inputs": [],
      "name": "renounceOwnership",
      "outputs": [],
      "stateMutability": "nonpayable",
      "type": "function"
    },
    {
      "inputs": [],
      "name": "resaleWindowOpen",
      "outputs": [
        {
          "internalType": "bool",
          "name": "",
          "type": "bool"
        }
      ],
      "stateMutability": "view",
      "type": "function"
    },
    {
      "inputs": [
        {
          "internalType": "uint256",
          "name": "tokenId",
          "type": "uint256"
        },
        {
          "internalType": "address",
          "name": "to",
          "type": "address"
        },
        {
          "internalType": "uint256",
          "name": "price",
          "type": "uint256"
        }
      ],
      "name": "resell",
      "outputs": [],
      "stateMutability": "nonpayable",
      "type": "function"
    },
    {
      "inputs": [
        {
          "internalType": "address",
          "name": "from",
          "type": "address"
        },
        {
          "internalType": "address",
          "name": "to",
          "type": "address"
        },
        {
          "internalType": "uint256",
          "name": "tokenId",
          "type": "uint256"
        }
      ],
      "name": "safeTransferFrom",
      "outputs": [],
      "stateMutability": "nonpayable",
      "type": "function"
    },
    {
      "inputs": [
        {
          "internalType": "address",
          "name": "from",
          "type": "address"
        },
        {
          "internalType": "address",
          "name": "to",
          "type": "address"
        },
        {
          "internalType": "uint256",
          "name": "tokenId",
          "type": "uint256"
        },
        {
          "internalType": "bytes",
          "name": "data",
          "type": "bytes"
        }
      ],
      "name": "safeTransferFrom",
      "outputs": [],
      "stateMutability": "nonpayable",
      "type": "function"
    },
    {
      "inputs": [
        {
          "internalType": "address",
          "name": "operator",
          "type": "address"
        },
        {
          "internalType": "bool",
          "name": "approved",
          "type": "bool"
        }
      ],
      "name": "setApprovalForAll",
      "outputs": [],
      "stateMutability": "nonpayable",
      "type": "function"
    },
    {
      "inputs": [
        {
          "internalType": "bool",
          "name": "open",
          "type": "bool"
        }
      ],
      "name": "setResaleWindowOpen",
      "outputs": [],
      "stateMutability": "nonpayable",
      "type": "function"
    },
    {
      "inputs": [
        {
          "internalType": "bytes4",
          "name": "interfaceId",
          "type": "bytes4"
        }
      ],
      "name": "supportsInterface",
      "outputs": [
        {
          "internalType": "bool",
          "name": "",
          "type": "bool"
        }
      ],
      "stateMutability": "view",
      "type": "function"
    },
    {
      "inputs": [],
      "name": "symbol",
      "outputs": [
        {
          "internalType": "string",
          "name": "",
          "type": "string"
        }
      ],
      "stateMutability": "view",
      "type": "function"
    },
    {
      "inputs": [
        {
          "internalType": "uint256",
          "name": "",
          "type": "uint256"
        }
      ],
      "name": "ticketData",
      "outputs": [
        {
          "internalType": "uint256",
          "name": "tokenId",
          "type": "uint256"
        },
        {
          "internalType": "string",
          "name": "eventId",
          "type": "string"
        },
        {
          "internalType": "string",
          "name": "seat",
          "type": "string"
        },
        {
          "internalType": "uint256",
          "name": "faceValue",
          "type": "uint256"
        },
        {
          "internalType": "uint256",
          "name": "maxResalePrice",
          "type": "uint256"
        },
        {
          "internalType": "bool",
          "name": "isUsed",
          "type": "bool"
        },
        {
          "internalType": "uint256",
          "name": "transferCount",
          "type": "uint256"
        }
      ],
      "stateMutability": "view",
      "type": "function"
    },
    {
      "inputs": [
        {
          "internalType": "uint256",
          "name": "tokenId",
          "type": "uint256"
        }
      ],
      "name": "tokenURI",
      "outputs": [
        {
          "internalType": "string",
          "name": "",
          "type": "string"
        }
      ],
      "stateMutability": "view",
      "type": "function"
    },
    {
      "inputs": [
        {
          "internalType": "address",
          "name": "from",
          "type": "address"
        },
        {
          "internalType": "address",
          "name": "to",
          "type": "address"
        },
        {
          "internalType": "uint256",
          "name": "tokenId",
          "type": "uint256"
        }
      ],
      "name": "transferFrom",
      "outputs": [],
      "stateMutability": "nonpayable",
      "type": "function"
    },
    {
      "inputs": [
        {
          "internalType": "address",
          "name": "newOwner",
          "type": "address"
        }
      ],
      "name": "transferOwnership",
      "outputs": [],
      "stateMutability": "nonpayable",
      "type": "function"
    }
  ],
  "bytecode": "0x60806040526001600860006101000a81548160ff0219169083151502179055503480156200002c57600080fd5b506040518060400160405280601081526020017f426c6f636b53656174205469636b6574000000000000000000000000000000008152506040518060400160405280600581526020017f42535449580000000000000000000000000000000000000000000000000000008152508160009081620000aa91906200042d565b508060019081620000bc91906200042d565b505050620000df620000d3620000e560201b60201c565b620000ed60201b60201c565b62000514565b600033905090565b6000600660009054906101000a900473ffffffffffffffffffffffffffffffffffffffff16905081600660006101000a81548173ffffffffffffffffffffffffffffffffffffffff021916908373ffffffffffffffffffffffffffffffffffffffff1602179055508173ffffffffffffffffffffffffffffffffffffffff168173ffffffffffffffffffffffffffffffffffffffff167f8be0079c531659141344cd1fd0a4f28419497f9722a3daafe3b4186f6b6457e060405160405180910390a35050565b600081519050919050565b7f4e487b7100000000000000000000000000000000000000000000000000000000600052604160045260246000fd5b7f4e487b7100000000000000000000000000000000000000000000000000000000600052602260045260246000fd5b600060028204905060018216806200023557607f821691505b6020821081036200024b576200024a620001ed565b5b50919050565b60008190508160005260206000209050919050565b60006020601f8301049050919050565b600082821b905092915050565b600060088302620002b57fffffffffffffffffffffffffffffffffffffffffffffffffffffffffffffffff8262000276565b620002c1868362000276565b95508019841693508086168417925050509392505050565b6000819050919050565b6000819050919050565b60006200030e620003086200030284620002d9565b620002e3565b620002d9565b9050919050565b6000819050919050565b6200032a83620002ed565b62000342620003398262000315565b84845462000283565b825550505050565b600090565b620003596200034a565b620003668184846200031f565b505050565b5b818110156200038e57620003826000826200034f565b6001810190506200036c565b5050565b601f821115620003dd57620003a78162000251565b620003b28462000266565b81016020851015620003c2578190505b620003da620003d18562000266565b8301826200036b565b50505b505050565b600082821c905092915050565b60006200040260001984600802620003e2565b1980831691505092915050565b60006200041d8383620003ef565b9150826002028217905092915050565b6200043882620001b3565b67ffffffffffffffff811115620004545762000453620001be565b5b6200046082546200021c565b6200046d82828562000392565b600060209050601f831160018114620004a5576000841562000490578287015190505b6200049c85826200040f565b8655506200050c565b601f198416620004b58662000251565b60005b82811015620004df57848901518255600182019150602085019450602081019050620004b8565b86831015620004ff5784890151620004fb601f891682620003ef565b8355505b6001600288020188555050505b505050505050565b613f0280620005246000396000f3fe608060405234801561001057600080fd5b506004361061014d5760003560e01c806370a08231116100c3578063b88d4fde1161007c578063b88d4fde1461038e578063c87b56dd146103aa578063d0c7291b146103da578063d9895e6a146103f6578063e985e9c514610426578063f2fde38b146104565761014d565b806370a08231146102e0578063715018a6146103105780638da5cb5b1461031a57806395d89b4114610338578063a22cb46514610356578063af72bd91146103725761014d565b8063394803fd11610115578063394803fd146102085780633e98d3711461023e57806342842e0e1461025c5780635beac899146102785780636352211e1461029457806365db5dfa146102c45761014d565b806301ffc9a71461015257806306fdde0314610182578063081812fc146101a0578063095ea7b3146101d057806323b872dd146101ec575b600080fd5b61016c600480360381019061016791906125bf565b610472565b6040516101799190612607565b60405180910390f35b61018a610554565b60405161019791906126b2565b60405180910390f35b6101ba60048036038101906101b5919061270a565b6105e6565b6040516101c79190612778565b60405180910390f35b6101ea60048036038101906101e591906127bf565b61062c565b005b610206600480360381019061020191906127ff565b610743565b005b610222600480360381019061021d919061270a565b6107a3565b6040516102359796959493929190612861565b60405180910390f35b610246610902565b6040516102539190612607565b60405180910390f35b610276600480360381019061027191906127ff565b610915565b005b610292600480360381019061028d91906128de565b610935565b005b6102ae60048036038101906102a9919061270a565b610c5d565b6040516102bb9190612778565b60405180910390f35b6102de60048036038101906102d9919061295d565b610ce3565b005b6102fa60048036038101906102f5919061298a565b610d08565b60405161030791906129b7565b60405180910390f35b610318610dbf565b005b610322610dd3565b60405161032f9190612778565b60405180910390f35b610340610dfd565b60405161034d91906126b2565b60405180910390f35b610370600480360381019061036b91906129d2565b610e8f565b005b61038c60048036038101906103879190612b47565b610ea5565b005b6103a860048036038101906103a39190612c9b565b6110f1565b005b6103c460048036038101906103bf919061270a565b611153565b6040516103d191906126b2565b60405180910390f35b6103f460048036038101906103ef919061270a565b6111bb565b005b610410600480360381019061040b919061270a565b6112ce565b60405161041d9190612e29565b60405180910390f35b610440600480360381019061043b9190612e4b565b6114aa565b60405161044d9190612607565b60405180910390f35b610470600480360381019061046b919061298a565b61153e565b005b60007f80ac58cd000000000000000000000000000000000000000000000000000000007bffffffffffffffffffffffffffffffffffffffffffffffffffffffff1916827bffffffffffffffffffffffffffffffffffffffffffffffffffffffff1916148061053d57507f5b5e139f000000000000000000000000000000000000000000000000000000007bffffffffffffffffffffffffffffffffffffffffffffffffffffffff1916827bffffffffffffffffffffffffffffffffffffffffffffffffffffffff1916145b8061054d575061054c826115c1565b5b9050919050565b60606000805461056390612eba565b80601f016020809104026020016040519081016040528092919081815260200182805461058f90612eba565b80156105dc5780601f106105b1576101008083540402835291602001916105dc565b820191906000526020600020905b8154815290600101906020018083116105bf57829003601f168201915b5050505050905090565b60006105f18261162b565b6004600083815260200190815260200160002060009054906101000a900473ffffffffffffffffffffffffffffffffffffffff169050919050565b600061063782610c5d565b90508073ffffffffffffffffffffffffffffffffffffffff168373ffffffffffffffffffffffffffffffffffffffff16036106a7576040517f08c379a000000000000000000000000000000000000000000000000000000000815260040161069e90612f5d565b60405180910390fd5b8073ffffffffffffffffffffffffffffffffffffffff166106c6611676565b73ffffffffffffffffffffffffffffffffffffffff1614806106f557506106f4816106ef611676565b6114aa565b5b610734576040517f08c379a000000000000000000000000000000000000000000000000000000000815260040161072b90612fef565b60405180910390fd5b61073e838361167e565b505050565b61075461074e611676565b82611737565b610793576040517f08c379a000000000000000000000000000000000000000000000000000000000815260040161078a90613081565b60405180910390fd5b61079e8383836117cc565b505050565b60076020528060005260406000206000915090508060000154908060010180546107cc90612eba565b80601f01602080910402602001604051908101604052809291908181526020018280546107f890612eba565b80156108455780601f1061081a57610100808354040283529160200191610845565b820191906000526020600020905b81548152906001019060200180831161082857829003601f168201915b50505050509080600201805461085a90612eba565b80601f016020809104026020016040519081016040528092919081815260200182805461088690612eba565b80156108d35780601f106108a8576101008083540402835291602001916108d3565b820191906000526020600020905b8154815290600101906020018083116108b657829003601f168201915b5050505050908060030154908060040154908060050160009054906101000a900460ff16908060060154905087565b600860009054906101000a900460ff1681565b610930838383604051806020016040528060008152506110f1565b505050565b61093e83611ac5565b61097d576040517f08c379a0000000000000000000000000000000000000000000000000000000008152600401610974906130ed565b60405180910390fd5b3373ffffffffffffffffffffffffffffffffffffffff1661099d84610c5d565b73ffffffffffffffffffffffffffffffffffffffff16146109f3576040517f08c379a00000000000000000000000000000000000000000000000000000000081526004016109ea90613159565b60405180910390fd5b600073ffffffffffffffffffffffffffffffffffffffff168273ffffffffffffffffffffffffffffffffffffffff1603610a62576040517f08c379a0000000000000000000000000000000000000000000000000000000008152600401610a59906131c5565b60405180910390fd5b6007600084815260200190815260200160002060050160009054906101000a900460ff1615610ac6576040517f08c379a0000000000000000000000000000000000000000000000000000000008152600401610abd90613231565b60405180910390fd5b600860009054906101000a900460ff16610b15576040517f08c379a0000000000000000000000000000000000000000000000000000000008152600401610b0c9061329d565b60405180910390fd5b6007600084815260200190815260200160002060040154811115610b6e576040517f08c379a0000000000000000000000000000000000000000000000000000000008152600401610b6590613309565b60405180910390fd5b6004610b7983610d08565b10610bb9576040517f08c379a0000000000000000000000000000000000000000000000000000000008152600401610bb090613375565b60405180910390fd5b610bc43383856117cc565b6001600760008581526020019081526020016000206006016000828254610beb91906133c4565b925050819055508173ffffffffffffffffffffffffffffffffffffffff163373ffffffffffffffffffffffffffffffffffffffff16847fd59a36d8310ffb140214be490baf3fe8961f859a17199ec1bf9015c8b734001184604051610c5091906129b7565b60405180910390a4505050565b600080610c6983611b06565b9050600073ffffffffffffffffffffffffffffffffffffffff168173ffffffffffffffffffffffffffffffffffffffff1603610cda576040517f08c379a0000000000000000000000000000000000000000000000000000000008152600401610cd190613444565b60405180910390fd5b80915050919050565b610ceb611b43565b80600860006101000a81548160ff02191690831515021790555050565b60008073ffffffffffffffffffffffffffffffffffffffff168273ffffffffffffffffffffffffffffffffffffffff1603610d78576040517f08c379a0000000000000000000000000000000000000000000000000000000008152600401610d6f906134d6565b60405180910390fd5b600360008373ffffffffffffffffffffffffffffffffffffffff1673ffffffffffffffffffffffffffffffffffffffff168152602001908152602001600020549050919050565b610dc7611b43565b610dd16000611bc1565b565b6000600660009054906101000a900473ffffffffffffffffffffffffffffffffffffffff16905090565b606060018054610e0c90612eba565b80601f0160208091040260200160405190810160405280929190818152602001828054610e3890612eba565b8015610e855780601f10610e5a57610100808354040283529160200191610e85565b820191906000526020600020905b815481529060010190602001808311610e6857829003601f168201915b5050505050905090565b610ea1610e9a611676565b8383611c87565b5050565b610ead611b43565b600073ffffffffffffffffffffffffffffffffffffffff168573ffffffffffffffffffffffffffffffffffffffff1603610f1c576040517f08c379a0000000000000000000000000000000000000000000000000000000008152600401610f1390613542565b60405180910390fd5b610f2584611ac5565b15610f65576040517f08c379a0000000000000000000000000000000000000000000000000000000008152600401610f5c906135ae565b60405180910390fd5b6004610f7086610d08565b10610fb0576040517f08c379a0000000000000000000000000000000000000000000000000000000008152600401610fa79061361a565b60405180910390fd5b610fba8585611df3565b60006064606e83610fcb919061363a565b610fd591906136ab565b90506040518060e001604052808681526020018581526020018481526020018381526020018281526020016000151581526020016000815250600760008781526020019081526020016000206000820151816000015560208201518160010190816110409190613888565b5060408201518160020190816110569190613888565b50606082015181600301556080820151816004015560a08201518160050160006101000a81548160ff02191690831515021790555060c082015181600601559050508573ffffffffffffffffffffffffffffffffffffffff16857f1153adbee8c4659f6a491287940bca8c761ae9ba6e88277ba7f232dfb08d980386866040516110e192919061395a565b60405180910390a3505050505050565b6111026110fc611676565b83611737565b611141576040517f08c379a000000000000000000000000000000000000000000000000000000000815260040161113890613081565b60405180910390fd5b61114d84848484611e11565b50505050565b606061115e8261162b565b6000611168611e6d565b9050600081511161118857604051806020016040528060008152506111b3565b8061119284611e84565b6040516020016111a39291906139cd565b6040516020818303038152906040525b915050919050565b6111c3611b43565b6111cc81611ac5565b61120b576040517f08c379a0000000000000000000000000000000000000000000000000000000008152600401611202906130ed565b60405180910390fd5b6007600082815260200190815260200160002060050160009054906101000a900460ff161561126f576040517f08c379a000000000000000000000000000000000000000000000000000000000815260040161126690613231565b60405180910390fd5b60016007600083815260200190815260200160002060050160006101000a81548160ff021916908315150217905550807f1f5d53e38fbc5a40092861e993062e74fb6dc7acef58356c7b55aa1afd8b350160405160405180910390a250565b6112d6612514565b6112df82611ac5565b61131e576040517f08c379a0000000000000000000000000000000000000000000000000000000008152600401611315906130ed565b60405180910390fd5b600760008381526020019081526020016000206040518060e00160405290816000820154815260200160018201805461135690612eba565b80601f016020809104026020016040519081016040528092919081815260200182805461138290612eba565b80156113cf5780601f106113a4576101008083540402835291602001916113cf565b820191906000526020600020905b8154815290600101906020018083116113b257829003601f168201915b505050505081526020016002820180546113e890612eba565b80601f016020809104026020016040519081016040528092919081815260200182805461141490612eba565b80156114615780601f1061143657610100808354040283529160200191611461565b820191906000526020600020905b81548152906001019060200180831161144457829003601f168201915b5050505050815260200160038201548152602001600482015481526020016005820160009054906101000a900460ff161515151581526020016006820154815250509050919050565b6000600560008473ffffffffffffffffffffffffffffffffffffffff1673ffffffffffffffffffffffffffffffffffffffff16815260200190815260200160002060008373ffffffffffffffffffffffffffffffffffffffff1673ffffffffffffffffffffffffffffffffffffffff16815260200190815260200160002060009054906101000a900460ff16905092915050565b611546611b43565b600073ffffffffffffffffffffffffffffffffffffffff168173ffffffffffffffffffffffffffffffffffffffff16036115b5576040517f08c379a00000000000000000000000000000000000000000000000000000000081526004016115ac90613a63565b60405180910390fd5b6115be81611bc1565b50565b60007f01ffc9a7000000000000000000000000000000000000000000000000000000007bffffffffffffffffffffffffffffffffffffffffffffffffffffffff1916827bffffffffffffffffffffffffffffffffffffffffffffffffffffffff1916149050919050565b61163481611f52565b611673576040517f08c379a000000000000000000000000000000000000000000000000000000000815260040161166a90613444565b60405180910390fd5b50565b600033905090565b816004600083815260200190815260200160002060006101000a81548173ffffffffffffffffffffffffffffffffffffffff021916908373ffffffffffffffffffffffffffffffffffffffff160217905550808273ffffffffffffffffffffffffffffffffffffffff166116f183610c5d565b73ffffffffffffffffffffffffffffffffffffffff167f8c5be1e5ebec7d5bd14f71427d1e84f3dd0314c0f7b2291e5b200ac8c7c3b92560405160405180910390a45050565b60008061174383610c5d565b90508073ffffffffffffffffffffffffffffffffffffffff168473ffffffffffffffffffffffffffffffffffffffff161480611785575061178481856114aa565b5b806117c357508373ffffffffffffffffffffffffffffffffffffffff166117ab846105e6565b73ffffffffffffffffffffffffffffffffffffffff16145b91505092915050565b8273ffffffffffffffffffffffffffffffffffffffff166117ec82610c5d565b73ffffffffffffffffffffffffffffffffffffffff1614611842576040517f08c379a000000000000000000000000000000000000000000000000000000000815260040161183990613af5565b60405180910390fd5b600073ffffffffffffffffffffffffffffffffffffffff168273ffffffffffffffffffffffffffffffffffffffff16036118b1576040517f08c379a00000000000000000000000000000000000000000000000000000000081526004016118a890613b87565b60405180910390fd5b6118be8383836001611f93565b8273ffffffffffffffffffffffffffffffffffffffff166118de82610c5d565b73ffffffffffffffffffffffffffffffffffffffff1614611934576040517f08c379a000000000000000000000000000000000000000000000000000000000815260040161192b90613af5565b60405180910390fd5b6004600082815260200190815260200160002060006101000a81549073ffffffffffffffffffffffffffffffffffffffff02191690556001600360008573ffffffffffffffffffffffffffffffffffffffff1673ffffffffffffffffffffffffffffffffffffffff168152602001908152602001600020600082825403925050819055506001600360008473ffffffffffffffffffffffffffffffffffffffff1673ffffffffffffffffffffffffffffffffffffffff16815260200190815260200160002060008282540192505081905550816002600083815260200190815260200160002060006101000a81548173ffffffffffffffffffffffffffffffffffffffff021916908373ffffffffffffffffffffffffffffffffffffffff160217905550808273ffffffffffffffffffffffffffffffffffffffff168473ffffffffffffffffffffffffffffffffffffffff167fddf252ad1be2c89b69c2b068fc378daa952ba7f163c4a11628f55a4df523b3ef60405160405180910390a4611ac08383836001611f99565b505050565b60008073ffffffffffffffffffffffffffffffffffffffff16611ae783611b06565b73ffffffffffffffffffffffffffffffffffffffff1614159050919050565b60006002600083815260200190815260200160002060009054906101000a900473ffffffffffffffffffffffffffffffffffffffff169050919050565b611b4b611676565b73ffffffffffffffffffffffffffffffffffffffff16611b69610dd3565b73ffffffffffffffffffffffffffffffffffffffff1614611bbf576040517f08c379a0000000000000000000000000000000000000000000000000000000008152600401611bb690613bf3565b60405180910390fd5b565b6000600660009054906101000a900473ffffffffffffffffffffffffffffffffffffffff16905081600660006101000a81548173ffffffffffffffffffffffffffffffffffffffff021916908373ffffffffffffffffffffffffffffffffffffffff1602179055508173ffffffffffffffffffffffffffffffffffffffff168173ffffffffffffffffffffffffffffffffffffffff167f8be0079c531659141344cd1fd0a4f28419497f9722a3daafe3b4186f6b6457e060405160405180910390a35050565b8173ffffffffffffffffffffffffffffffffffffffff168373ffffffffffffffffffffffffffffffffffffffff1603611cf5576040517f08c379a0000000000000000000000000000000000000000000000000000000008152600401611cec90613c5f565b60405180910390fd5b80600560008573ffffffffffffffffffffffffffffffffffffffff1673ffffffffffffffffffffffffffffffffffffffff16815260200190815260200160002060008473ffffffffffffffffffffffffffffffffffffffff1673ffffffffffffffffffffffffffffffffffffffff16815260200190815260200160002060006101000a81548160ff0219169083151502179055508173ffffffffffffffffffffffffffffffffffffffff168373ffffffffffffffffffffffffffffffffffffffff167f17307eab39ab6107e8899845ad3d59bd9653f200f220920489ca2b5937696c3183604051611de69190612607565b60405180910390a3505050565b611e0d828260405180602001604052806000815250611f9f565b5050565b611e1c8484846117cc565b611e2884848484611ffa565b611e67576040517f08c379a0000000000000000000000000000000000000000000000000000000008152600401611e5e90613cf1565b60405180910390fd5b50505050565b606060405180602001604052806000815250905090565b606060006001611e9384612181565b01905060008167ffffffffffffffff811115611eb257611eb1612a1c565b5b6040519080825280601f01601f191660200182016040528015611ee45781602001600182028036833780820191505090505b509050600082602001820190505b600115611f47578080600190039150507f3031323334353637383961626364656600000000000000000000000000000000600a86061a8153600a8581611f3b57611f3a61367c565b5b04945060008503611ef2575b819350505050919050565b60008073ffffffffffffffffffffffffffffffffffffffff16611f7483611b06565b73ffffffffffffffffffffffffffffffffffffffff1614159050919050565b50505050565b50505050565b611fa983836122d4565b611fb66000848484611ffa565b611ff5576040517f08c379a0000000000000000000000000000000000000000000000000000000008152600401611fec90613cf1565b60405180910390fd5b505050565b600061201b8473ffffffffffffffffffffffffffffffffffffffff166124f1565b15612174578373ffffffffffffffffffffffffffffffffffffffff1663150b7a02612044611676565b8786866040518563ffffffff1660e01b81526004016120669493929190613d66565b6020604051808303816000875af19250505080156120a257506040513d601f19601f8201168201806040525081019061209f9190613dc7565b60015b612124573d80600081146120d2576040519150601f19603f3d011682016040523d82523d6000602084013e6120d7565b606091505b50600081510361211c576040517f08c379a000000000000000000000000000000000000000000000000000000000815260040161211390613cf1565b60405180910390fd5b805181602001fd5b63150b7a0260e01b7bffffffffffffffffffffffffffffffffffffffffffffffffffffffff1916817bffffffffffffffffffffffffffffffffffffffffffffffffffffffff191614915050612179565b600190505b949350505050565b600080600090507a184f03e93ff9f4daa797ed6e38ed64bf6a1f01000000000000000083106121df577a184f03e93ff9f4daa797ed6e38ed64bf6a1f01000000000000000083816121d5576121d461367c565b5b0492506040810190505b6d04ee2d6d415b85acef8100000000831061221c576d04ee2d6d415b85acef810000000083816122125761221161367c565b5b0492506020810190505b662386f26fc10000831061224b57662386f26fc1000083816122415761224061367c565b5b0492506010810190505b6305f5e1008310612274576305f5e100838161226a5761226961367c565b5b0492506008810190505b612710831061229957612710838161228f5761228e61367c565b5b0492506004810190505b606483106122bc57606483816122b2576122b161367c565b5b0492506002810190505b600a83106122cb576001810190505b80915050919050565b600073ffffffffffffffffffffffffffffffffffffffff168273ffffffffffffffffffffffffffffffffffffffff1603612343576040517f08c379a000000000000000000000000000000000000000000000000000000000815260040161233a90613e40565b60405180910390fd5b61234c81611f52565b1561238c576040517f08c379a000000000000000000000000000000000000000000000000000000000815260040161238390613eac565b60405180910390fd5b61239a600083836001611f93565b6123a381611f52565b156123e3576040517f08c379a00000000000000000000000000000000000000000000000000000000081526004016123da90613eac565b60405180910390fd5b6001600360008473ffffffffffffffffffffffffffffffffffffffff1673ffffffffffffffffffffffffffffffffffffffff16815260200190815260200160002060008282540192505081905550816002600083815260200190815260200160002060006101000a81548173ffffffffffffffffffffffffffffffffffffffff021916908373ffffffffffffffffffffffffffffffffffffffff160217905550808273ffffffffffffffffffffffffffffffffffffffff16600073ffffffffffffffffffffffffffffffffffffffff167fddf252ad1be2c89b69c2b068fc378daa952ba7f163c4a11628f55a4df523b3ef60405160405180910390a46124ed600083836001611f99565b5050565b6000808273ffffffffffffffffffffffffffffffffffffffff163b119050919050565b6040518060e001604052806000815260200160608152602001606081526020016000815260200160008152602001600015158152602001600081525090565b6000604051905090565b600080fd5b600080fd5b60007fffffffff0000000000000000000000000000000000000000000000000000000082169050919050565b61259c81612567565b81146125a757600080fd5b50565b6000813590506125b981612593565b92915050565b6000602082840312156125d5576125d461255d565b5b60006125e3848285016125aa565b91505092915050565b60008115159050919050565b612601816125ec565b82525050565b600060208201905061261c60008301846125f8565b92915050565b600081519050919050565b600082825260208201905092915050565b60005b8381101561265c578082015181840152602081019050612641565b60008484015250505050565b6000601f19601f8301169050919050565b600061268482612622565b61268e818561262d565b935061269e81856020860161263e565b6126a781612668565b840191505092915050565b600060208201905081810360008301526126cc8184612679565b905092915050565b6000819050919050565b6126e7816126d4565b81146126f257600080fd5b50565b600081359050612704816126de565b92915050565b6000602082840312156127205761271f61255d565b5b600061272e848285016126f5565b91505092915050565b600073ffffffffffffffffffffffffffffffffffffffff82169050919050565b600061276282612737565b9050919050565b61277281612757565b82525050565b600060208201905061278d6000830184612769565b92915050565b61279c81612757565b81146127a757600080fd5b50565b6000813590506127b981612793565b92915050565b600080604083850312156127d6576127d561255d565b5b60006127e4858286016127aa565b92505060206127f5858286016126f5565b9150509250929050565b6000806000606084860312156128185761281761255d565b5b6000612826868287016127aa565b9350506020612837868287016127aa565b9250506040612848868287016126f5565b9150509250925092565b61285b816126d4565b82525050565b600060e082019050612876600083018a612852565b81810360208301526128888189612679565b9050818103604083015261289c8188612679565b90506128ab6060830187612852565b6128b86080830186612852565b6128c560a08301856125f8565b6128d260c0830184612852565b98975050505050505050565b6000806000606084860312156128f7576128f661255d565b5b6000612905868287016126f5565b9350506020612916868287016127aa565b9250506040612927868287016126f5565b9150509250925092565b61293a816125ec565b811461294557600080fd5b50565b60008135905061295781612931565b92915050565b6000602082840312156129735761297261255d565b5b600061298184828501612948565b91505092915050565b6000602082840312156129a05761299f61255d565b5b60006129ae848285016127aa565b91505092915050565b60006020820190506129cc6000830184612852565b92915050565b600080604083850312156129e9576129e861255d565b5b60006129f7858286016127aa565b9250506020612a0885828601612948565b9150509250929050565b600080fd5b600080fd5b7f4e487b7100000000000000000000000000000000000000000000000000000000600052604160045260246000fd5b612a5482612668565b810181811067ffffffffffffffff82111715612a7357612a72612a1c565b5b80604052505050565b6000612a86612553565b9050612a928282612a4b565b919050565b600067ffffffffffffffff821115612ab257612ab1612a1c565b5b612abb82612668565b9050602081019050919050565b82818337600083830152505050565b6000612aea612ae584612a97565b612a7c565b905082815260208101848484011115612b0657612b05612a17565b5b612b11848285612ac8565b509392505050565b600082601f830112612b2e57612b2d612a12565b5b8135612b3e848260208601612ad7565b91505092915050565b600080600080600060a08688031215612b6357612b6261255d565b5b6000612b71888289016127aa565b9550506020612b82888289016126f5565b945050604086013567ffffffffffffffff811115612ba357612ba2612562565b5b612baf88828901612b19565b935050606086013567ffffffffffffffff811115612bd057612bcf612562565b5b612bdc88828901612b19565b9250506080612bed888289016126f5565b9150509295509295909350565b600067ffffffffffffffff821115612c1557612c14612a1c565b5b612c1e82612668565b9050602081019050919050565b6000612c3e612c3984612bfa565b612a7c565b905082815260208101848484011115612c5a57612c59612a17565b5b612c65848285612ac8565b509392505050565b600082601f830112612c8257612c81612a12565b5b8135612c92848260208601612c2b565b91505092915050565b60008060008060808587031215612cb557612cb461255d565b5b6000612cc3878288016127aa565b9450506020612cd4878288016127aa565b9350506040612ce5878288016126f5565b925050606085013567ffffffffffffffff811115612d0657612d05612562565b5b612d1287828801612c6d565b91505092959194509250565b612d27816126d4565b82525050565b600082825260208201905092915050565b6000612d4982612622565b612d538185612d2d565b9350612d6381856020860161263e565b612d6c81612668565b840191505092915050565b612d80816125ec565b82525050565b600060e083016000830151612d9e6000860182612d1e565b5060208301518482036020860152612db68282612d3e565b91505060408301518482036040860152612dd08282612d3e565b9150506060830151612de56060860182612d1e565b506080830151612df86080860182612d1e565b5060a0830151612e0b60a0860182612d77565b5060c0830151612e1e60c0860182612d1e565b508091505092915050565b60006020820190508181036000830152612e438184612d86565b905092915050565b60008060408385031215612e6257612e6161255d565b5b6000612e70858286016127aa565b9250506020612e81858286016127aa565b9150509250929050565b7f4e487b7100000000000000000000000000000000000000000000000000000000600052602260045260246000fd5b60006002820490506001821680612ed257607f821691505b602082108103612ee557612ee4612e8b565b5b50919050565b7f4552433732313a20617070726f76616c20746f2063757272656e74206f776e6560008201527f7200000000000000000000000000000000000000000000000000000000000000602082015250565b6000612f4760218361262d565b9150612f5282612eeb565b604082019050919050565b60006020820190508181036000830152612f7681612f3a565b9050919050565b7f4552433732313a20617070726f76652063616c6c6572206973206e6f7420746f60008201527f6b656e206f776e6572206f7220617070726f76656420666f7220616c6c000000602082015250565b6000612fd9603d8361262d565b9150612fe482612f7d565b604082019050919050565b6000602082019050818103600083015261300881612fcc565b9050919050565b7f4552433732313a2063616c6c6572206973206e6f7420746f6b656e206f776e6560008201527f72206f7220617070726f76656400000000000000000000000000000000000000602082015250565b600061306b602d8361262d565b91506130768261300f565b604082019050919050565b6000602082019050818103600083015261309a8161305e565b9050919050565b7f546f6b656e20646f6573206e6f74206578697374000000000000000000000000600082015250565b60006130d760148361262d565b91506130e2826130a1565b602082019050919050565b60006020820190508181036000830152613106816130ca565b9050919050565b7f4e6f7420746f6b656e206f776e65720000000000000000000000000000000000600082015250565b6000613143600f8361262d565b915061314e8261310d565b602082019050919050565b6000602082019050818103600083015261317281613136565b9050919050565b7f496e76616c696420627579657200000000000000000000000000000000000000600082015250565b60006131af600d8361262d565b91506131ba82613179565b602082019050919050565b600060208201905081810360008301526131de816131a2565b9050919050565b7f5469636b657420616c7265616479207573656400000000000000000000000000600082015250565b600061321b60138361262d565b9150613226826131e5565b602082019050919050565b6000602082019050818103600083015261324a8161320e565b9050919050565b7f526573616c652077696e646f7720636c6f736564000000000000000000000000600082015250565b600061328760148361262d565b915061329282613251565b602082019050919050565b600060208201905081810360008301526132b68161327a565b9050919050565b7f5072696365206578636565647320636170000000000000000000000000000000600082015250565b60006132f360118361262d565b91506132fe826132bd565b602082019050919050565b60006020820190508181036000830152613322816132e6565b9050919050565b7f427579657220657863656564732077616c6c6574206c696d6974000000000000600082015250565b600061335f601a8361262d565b915061336a82613329565b602082019050919050565b6000602082019050818103600083015261338e81613352565b9050919050565b7f4e487b7100000000000000000000000000000000000000000000000000000000600052601160045260246000fd5b60006133cf826126d4565b91506133da836126d4565b92508282019050808211156133f2576133f1613395565b5b92915050565b7f4552433732313a20696e76616c696420746f6b656e2049440000000000000000600082015250565b600061342e60188361262d565b9150613439826133f8565b602082019050919050565b6000602082019050818103600083015261345d81613421565b9050919050565b7f4552433732313a2061646472657373207a65726f206973206e6f74206120766160008201527f6c6964206f776e65720000000000000000000000000000000000000000000000602082015250565b60006134c060298361262d565b91506134cb82613464565b604082019050919050565b600060208201905081810360008301526134ef816134b3565b9050919050565b7f496e76616c696420726563697069656e74000000000000000000000000000000600082015250565b600061352c60118361262d565b9150613537826134f6565b602082019050919050565b6000602082019050818103600083015261355b8161351f565b9050919050565b7f546f6b656e20616c7265616479206d696e746564000000000000000000000000600082015250565b600061359860148361262d565b91506135a382613562565b602082019050919050565b600060208201905081810360008301526135c78161358b565b9050919050565b7f4d61782034207469636b657473207065722077616c6c65740000000000000000600082015250565b600061360460188361262d565b915061360f826135ce565b602082019050919050565b60006020820190508181036000830152613633816135f7565b9050919050565b6000613645826126d4565b9150613650836126d4565b925082820261365e816126d4565b9150828204841483151761367557613674613395565b5b5092915050565b7f4e487b7100000000000000000000000000000000000000000000000000000000600052601260045260246000fd5b60006136b6826126d4565b91506136c1836126d4565b9250826136d1576136d061367c565b5b828204905092915050565b60008190508160005260206000209050919050565b60006020601f8301049050919050565b600082821b905092915050565b60006008830261373e7fffffffffffffffffffffffffffffffffffffffffffffffffffffffffffffffff82613701565b6137488683613701565b95508019841693508086168417925050509392505050565b6000819050919050565b600061378561378061377b846126d4565b613760565b6126d4565b9050919050565b6000819050919050565b61379f8361376a565b6137b36137ab8261378c565b84845461370e565b825550505050565b600090565b6137c86137bb565b6137d3818484613796565b505050565b5b818110156137f7576137ec6000826137c0565b6001810190506137d9565b5050565b601f82111561383c5761380d816136dc565b613816846136f1565b81016020851015613825578190505b613839613831856136f1565b8301826137d8565b50505b505050565b600082821c905092915050565b600061385f60001984600802613841565b1980831691505092915050565b6000613878838361384e565b9150826002028217905092915050565b61389182612622565b67ffffffffffffffff8111156138aa576138a9612a1c565b5b6138b48254612eba565b6138bf8282856137fb565b600060209050601f8311600181146138f257600084156138e0578287015190505b6138ea858261386c565b865550613952565b601f198416613900866136dc565b60005b8281101561392857848901518255600182019150602085019450602081019050613903565b868310156139455784890151613941601f89168261384e565b8355505b6001600288020188555050505b505050505050565b600060408201905081810360008301526139748185612679565b905081810360208301526139888184612679565b90509392505050565b600081905092915050565b60006139a782612622565b6139b18185613991565b93506139c181856020860161263e565b80840191505092915050565b60006139d9828561399c565b91506139e5828461399c565b91508190509392505050565b7f4f776e61626c653a206e6577206f776e657220697320746865207a65726f206160008201527f6464726573730000000000000000000000000000000000000000000000000000602082015250565b6000613a4d60268361262d565b9150613a58826139f1565b604082019050919050565b60006020820190508181036000830152613a7c81613a40565b9050919050565b7f4552433732313a207472616e736665722066726f6d20696e636f72726563742060008201527f6f776e6572000000000000000000000000000000000000000000000000000000602082015250565b6000613adf60258361262d565b9150613aea82613a83565b604082019050919050565b60006020820190508181036000830152613b0e81613ad2565b9050919050565b7f4552433732313a207472616e7366657220746f20746865207a65726f2061646460008201527f7265737300000000000000000000000000000000000000000000000000000000602082015250565b6000613b7160248361262d565b9150613b7c82613b15565b604082019050919050565b60006020820190508181036000830152613ba081613b64565b9050919050565b7f4f776e61626c653a2063616c6c6572206973206e6f7420746865206f776e6572600082015250565b6000613bdd60208361262d565b9150613be882613ba7565b602082019050919050565b60006020820190508181036000830152613c0c81613bd0565b9050919050565b7f4552433732313a20617070726f766520746f2063616c6c657200000000000000600082015250565b6000613c4960198361262d565b9150613c5482613c13565b602082019050919050565b60006020820190508181036000830152613c7881613c3c565b9050919050565b7f4552433732313a207472616e7366657220746f206e6f6e20455243373231526560008201527f63656976657220696d706c656d656e7465720000000000000000000000000000602082015250565b6000613cdb60328361262d565b9150613ce682613c7f565b604082019050919050565b60006020820190508181036000830152613d0a81613cce565b9050919050565b600081519050919050565b600082825260208201905092915050565b6000613d3882613d11565b613d428185613d1c565b9350613d5281856020860161263e565b613d5b81612668565b840191505092915050565b6000608082019050613d7b6000830187612769565b613d886020830186612769565b613d956040830185612852565b8181036060830152613da78184613d2d565b905095945050505050565b600081519050613dc181612593565b92915050565b600060208284031215613ddd57613ddc61255d565b5b6000613deb84828501613db2565b91505092915050565b7f4552433732313a206d696e7420746f20746865207a65726f2061646472657373600082015250565b6000613e2a60208361262d565b9150613e3582613df4565b602082019050919050565b60006020820190508181036000830152613e5981613e1d565b9050919050565b7f4552433732313a20746f6b656e20616c7265616479206d696e74656400000000600082015250565b6000613e96601c8361262d565b9150613ea182613e60565b602082019050919050565b60006020820190508181036000830152613ec581613e89565b905091905056fea264697066735822122054cc133d9d3dfd10abf4bd940afdc8f414b8b8f602673a510c60d7e78e9df22f64736f6c63430008140033",
  "linkReferences": {},
  "deployedLinkReferences": {}
}